{
  "contractName": "Insurence",
  "abi": [
    {
      "inputs": [
        {
          "internalType": "address",
          "name": "h_a",
          "type": "address"
        }
      ],
      "stateMutability": "nonpayable",
      "type": "constructor"
    },
    {
      "anonymous": false,
      "inputs": [
        {
          "indexed": true,
          "internalType": "address",
          "name": "_owner",
          "type": "address"
        },
        {
          "indexed": true,
          "internalType": "address",
          "name": "_spender",
          "type": "address"
        },
        {
          "indexed": false,
          "internalType": "uint256",
          "name": "_value",
          "type": "uint256"
        }
      ],
      "name": "Approval",
      "type": "event"
    },
    {
      "anonymous": false,
      "inputs": [
        {
          "indexed": true,
          "internalType": "address",
          "name": "_from",
          "type": "address"
        },
        {
          "indexed": true,
          "internalType": "address",
          "name": "_to",
          "type": "address"
        },
        {
          "indexed": false,
          "internalType": "uint256",
          "name": "_value",
          "type": "uint256"
        }
      ],
      "name": "Transfer",
      "type": "event"
    },
    {
      "inputs": [
        {
          "internalType": "address",
          "name": "_owner",
          "type": "address"
        },
        {
          "internalType": "address",
          "name": "_spender",
          "type": "address"
        }
      ],
      "name": "allowance",
      "outputs": [
        {
          "internalType": "uint256",
          "name": "remaining",
          "type": "uint256"
        }
      ],
      "stateMutability": "view",
      "type": "function",
      "constant": true
    },
    {
      "inputs": [
        {
          "internalType": "address",
          "name": "_spender",
          "type": "address"
        },
        {
          "internalType": "uint256",
          "name": "_value",
          "type": "uint256"
        }
      ],
      "name": "approve",
      "outputs": [
        {
          "internalType": "bool",
          "name": "success",
          "type": "bool"
        }
      ],
      "stateMutability": "nonpayable",
      "type": "function"
    },
    {
      "inputs": [
        {
          "internalType": "address",
          "name": "_owner",
          "type": "address"
        }
      ],
      "name": "balanceOf",
      "outputs": [
        {
          "internalType": "uint256",
          "name": "balance",
          "type": "uint256"
        }
      ],
      "stateMutability": "view",
      "type": "function",
      "constant": true
    },
    {
      "inputs": [],
      "name": "decimals",
      "outputs": [
        {
          "internalType": "uint8",
          "name": "",
          "type": "uint8"
        }
      ],
      "stateMutability": "view",
      "type": "function",
      "constant": true
    },
    {
      "inputs": [],
      "name": "name",
      "outputs": [
        {
          "internalType": "string",
          "name": "",
          "type": "string"
        }
      ],
      "stateMutability": "view",
      "type": "function",
      "constant": true
    },
    {
      "inputs": [],
      "name": "symbol",
      "outputs": [
        {
          "internalType": "string",
          "name": "",
          "type": "string"
        }
      ],
      "stateMutability": "view",
      "type": "function",
      "constant": true
    },
    {
      "inputs": [],
      "name": "totalSupply",
      "outputs": [
        {
          "internalType": "uint256",
          "name": "",
          "type": "uint256"
        }
      ],
      "stateMutability": "view",
      "type": "function",
      "constant": true
    },
    {
      "inputs": [
        {
          "internalType": "address",
          "name": "_to",
          "type": "address"
        },
        {
          "internalType": "uint256",
          "name": "_value",
          "type": "uint256"
        }
      ],
      "name": "transfer",
      "outputs": [
        {
          "internalType": "bool",
          "name": "success",
          "type": "bool"
        }
      ],
      "stateMutability": "payable",
      "type": "function",
      "payable": true
    },
    {
      "inputs": [
        {
          "internalType": "address",
          "name": "_from",
          "type": "address"
        },
        {
          "internalType": "address",
          "name": "_to",
          "type": "address"
        },
        {
          "internalType": "uint256",
          "name": "_value",
          "type": "uint256"
        }
      ],
      "name": "transferFrom",
      "outputs": [
        {
          "internalType": "bool",
          "name": "success",
          "type": "bool"
        }
      ],
      "stateMutability": "nonpayable",
      "type": "function"
    },
    {
      "inputs": [
        {
          "internalType": "string",
          "name": "_name",
          "type": "string"
        }
      ],
      "name": "regUser",
      "outputs": [],
      "stateMutability": "nonpayable",
      "type": "function"
    },
    {
      "inputs": [
        {
          "internalType": "address",
          "name": "_add",
          "type": "address"
        }
      ],
      "name": "viewUserId",
      "outputs": [
        {
          "components": [
            {
              "internalType": "uint256",
              "name": "user_id",
              "type": "uint256"
            },
            {
              "internalType": "string",
              "name": "user_name",
              "type": "string"
            },
            {
              "internalType": "bool",
              "name": "reg",
              "type": "bool"
            }
          ],
          "internalType": "struct Insurence.User",
          "name": "",
          "type": "tuple"
        }
      ],
      "stateMutability": "view",
      "type": "function",
      "constant": true
    },
    {
      "inputs": [
        {
          "internalType": "uint256",
          "name": "_i",
          "type": "uint256"
        },
        {
          "internalType": "uint256",
          "name": "_j",
          "type": "uint256"
        },
        {
          "internalType": "string",
          "name": "_des",
          "type": "string"
        },
        {
          "internalType": "uint256",
          "name": "_cost",
          "type": "uint256"
        }
      ],
      "name": "claim_insurence_cost",
      "outputs": [],
      "stateMutability": "nonpayable",
      "type": "function"
    },
    {
      "inputs": [
        {
          "internalType": "address",
          "name": "a",
          "type": "address"
        },
        {
          "internalType": "uint256",
          "name": "b",
          "type": "uint256"
        }
      ],
      "name": "oparation_details",
      "outputs": [
        {
          "components": [
            {
              "internalType": "uint256",
              "name": "user_id",
              "type": "uint256"
            },
            {
              "internalType": "uint256",
              "name": "operation_id",
              "type": "uint256"
            },
            {
              "internalType": "string",
              "name": "description",
              "type": "string"
            },
            {
              "internalType": "uint256",
              "name": "cost_for_claim",
              "type": "uint256"
            },
            {
              "internalType": "address",
              "name": "user_add",
              "type": "address"
            },
            {
              "internalType": "bool",
              "name": "claimed",
              "type": "bool"
            }
          ],
          "internalType": "struct Insurence.Oparation",
          "name": "",
          "type": "tuple"
        }
      ],
      "stateMutability": "view",
      "type": "function",
      "constant": true
    },
    {
      "inputs": [
        {
          "internalType": "address",
          "name": "_add",
          "type": "address"
        }
      ],
      "name": "change_hospital_admin",
      "outputs": [],
      "stateMutability": "nonpayable",
      "type": "function"
    },
    {
      "inputs": [
        {
          "internalType": "address",
          "name": "_add",
          "type": "address"
        },
        {
          "internalType": "string",
          "name": "des",
          "type": "string"
        },
        {
          "internalType": "uint256",
          "name": "cost",
          "type": "uint256"
        }
      ],
      "name": "recording_oparation",
      "outputs": [
        {
          "internalType": "uint256",
          "name": "",
          "type": "uint256"
        }
      ],
      "stateMutability": "nonpayable",
      "type": "function"
    },
    {
      "inputs": [
        {
          "internalType": "address",
          "name": "a",
          "type": "address"
        },
        {
          "internalType": "uint256",
          "name": "_i",
          "type": "uint256"
        },
        {
          "internalType": "uint256",
          "name": "_j",
          "type": "uint256"
        },
        {
          "internalType": "string",
          "name": "_des",
          "type": "string"
        },
        {
          "internalType": "uint256",
          "name": "_cost",
          "type": "uint256"
        }
      ],
      "name": "check_insurence_claim",
      "outputs": [
        {
          "internalType": "bool",
          "name": "",
          "type": "bool"
        }
      ],
      "stateMutability": "view",
      "type": "function",
      "constant": true
    },
    {
      "inputs": [
        {
          "internalType": "uint256",
          "name": "claim_no",
          "type": "uint256"
        }
      ],
      "name": "approve_claim",
      "outputs": [
        {
          "internalType": "bool",
          "name": "",
          "type": "bool"
        }
      ],
      "stateMutability": "nonpayable",
      "type": "function"
    },
    {
      "inputs": [],
      "name": "claim_pool_size",
      "outputs": [
        {
          "internalType": "uint256",
          "name": "",
          "type": "uint256"
        }
      ],
      "stateMutability": "view",
      "type": "function",
      "constant": true
    },
    {
      "inputs": [
        {
          "internalType": "uint256",
          "name": "i",
          "type": "uint256"
        }
      ],
      "name": "remove_i_claim",
      "outputs": [],
      "stateMutability": "nonpayable",
      "type": "function"
    }
  ],
  "bytecode": "0x60806040526001600a556001600c553480156200001b57600080fd5b5060405162003a7c38038062003a7c83398181016040528101906200004191906200022f565b6040518060400160405280600881526020017f48656c20436f696e00000000000000000000000000000000000000000000000081525060009081620000879190620004db565b506040518060400160405280600581526020017f48636f696e00000000000000000000000000000000000000000000000000000081525060019081620000ce9190620004db565b506000600260006101000a81548160ff021916908360ff1602179055506301406f40600381905550600354600460003373ffffffffffffffffffffffffffffffffffffffff1673ffffffffffffffffffffffffffffffffffffffff1681526020019081526020016000208190555033600660006101000a81548173ffffffffffffffffffffffffffffffffffffffff021916908373ffffffffffffffffffffffffffffffffffffffff16021790555080600760006101000a81548173ffffffffffffffffffffffffffffffffffffffff021916908373ffffffffffffffffffffffffffffffffffffffff16021790555050620005c2565b600080fd5b600073ffffffffffffffffffffffffffffffffffffffff82169050919050565b6000620001f782620001ca565b9050919050565b6200020981620001ea565b81146200021557600080fd5b50565b6000815190506200022981620001fe565b92915050565b600060208284031215620002485762000247620001c5565b5b6000620002588482850162000218565b91505092915050565b600081519050919050565b7f4e487b7100000000000000000000000000000000000000000000000000000000600052604160045260246000fd5b7f4e487b7100000000000000000000000000000000000000000000000000000000600052602260045260246000fd5b60006002820490506001821680620002e357607f821691505b602082108103620002f957620002f86200029b565b5b50919050565b60008190508160005260206000209050919050565b60006020601f8301049050919050565b600082821b905092915050565b600060088302620003637fffffffffffffffffffffffffffffffffffffffffffffffffffffffffffffffff8262000324565b6200036f868362000324565b95508019841693508086168417925050509392505050565b6000819050919050565b6000819050919050565b6000620003bc620003b6620003b08462000387565b62000391565b62000387565b9050919050565b6000819050919050565b620003d8836200039b565b620003f0620003e782620003c3565b84845462000331565b825550505050565b600090565b62000407620003f8565b62000414818484620003cd565b505050565b5b818110156200043c5762000430600082620003fd565b6001810190506200041a565b5050565b601f8211156200048b576200045581620002ff565b620004608462000314565b8101602085101562000470578190505b620004886200047f8562000314565b83018262000419565b50505b505050565b600082821c905092915050565b6000620004b06000198460080262000490565b1980831691505092915050565b6000620004cb83836200049d565b9150826002028217905092915050565b620004e68262000261565b67ffffffffffffffff8111156200050257620005016200026c565b5b6200050e8254620002ca565b6200051b82828562000440565b600060209050601f8311600181146200055357600084156200053e578287015190505b6200054a8582620004bd565b865550620005ba565b601f1984166200056386620002ff565b60005b828110156200058d5784890151825560018201915060208501945060208101905062000566565b86831015620005ad5784890151620005a9601f8916826200049d565b8355505b6001600288020188555050505b505050505050565b6134aa80620005d26000396000f3fe6080604052600436106101145760003560e01c8063880a132e116100a0578063ae0c906311610064578063ae0c9063146103b8578063c6feaa49146103f5578063c8906a4614610432578063d65b24e31461046f578063dd62ed3e146104ac57610114565b8063880a132e146102ce578063914011741461030b57806395d89b4114610334578063a86969831461035f578063a9059cbb1461038857610114565b80632dc5ecc0116100e75780632dc5ecc0146101e9578063313ce5671461021257806348a9ed291461023d57806370a0823114610266578063788f1ba9146102a357610114565b806306fdde0314610119578063095ea7b31461014457806318160ddd1461018157806323b872dd146101ac575b600080fd5b34801561012557600080fd5b5061012e6104e9565b60405161013b91906121dd565b60405180910390f35b34801561015057600080fd5b5061016b600480360381019061016691906122a7565b61057b565b6040516101789190612302565b60405180910390f35b34801561018d57600080fd5b5061019661066d565b6040516101a3919061232c565b60405180910390f35b3480156101b857600080fd5b506101d360048036038101906101ce9190612347565b610677565b6040516101e09190612302565b60405180910390f35b3480156101f557600080fd5b50610210600480360381019061020b91906124cf565b6109e2565b005b34801561021e57600080fd5b50610227610ba7565b604051610234919061256e565b60405180910390f35b34801561024957600080fd5b50610264600480360381019061025f9190612589565b610bbe565b005b34801561027257600080fd5b5061028d600480360381019061028891906125b6565b610da3565b60405161029a919061232c565b60405180910390f35b3480156102af57600080fd5b506102b8610dec565b6040516102c5919061232c565b60405180910390f35b3480156102da57600080fd5b506102f560048036038101906102f091906122a7565b610df9565b60405161030291906126e3565b60405180910390f35b34801561031757600080fd5b50610332600480360381019061032d91906125b6565b610ff3565b005b34801561034057600080fd5b50610349611091565b60405161035691906121dd565b60405180910390f35b34801561036b57600080fd5b5061038660048036038101906103819190612705565b611123565b005b6103a2600480360381019061039d91906122a7565b6112c8565b6040516103af9190612302565b60405180910390f35b3480156103c457600080fd5b506103df60048036038101906103da919061274e565b6114a5565b6040516103ec919061232c565b60405180910390f35b34801561040157600080fd5b5061041c60048036038101906104179190612589565b611818565b6040516104299190612302565b60405180910390f35b34801561043e57600080fd5b50610459600480360381019061045491906125b6565b611b80565b604051610466919061280d565b60405180910390f35b34801561047b57600080fd5b506104966004803603810190610491919061282f565b611cfe565b6040516104a39190612302565b60405180910390f35b3480156104b857600080fd5b506104d360048036038101906104ce91906128c6565b611ff8565b6040516104e0919061232c565b60405180910390f35b6060600080546104f890612935565b80601f016020809104026020016040519081016040528092919081815260200182805461052490612935565b80156105715780601f1061054657610100808354040283529160200191610571565b820191906000526020600020905b81548152906001019060200180831161055457829003601f168201915b5050505050905090565b600081600560003373ffffffffffffffffffffffffffffffffffffffff1673ffffffffffffffffffffffffffffffffffffffff16815260200190815260200160002060008573ffffffffffffffffffffffffffffffffffffffff1673ffffffffffffffffffffffffffffffffffffffff168152602001908152602001600020819055508273ffffffffffffffffffffffffffffffffffffffff163373ffffffffffffffffffffffffffffffffffffffff167f8c5be1e5ebec7d5bd14f71427d1e84f3dd0314c0f7b2291e5b200ac8c7c3b9258460405161065b919061232c565b60405180910390a36001905092915050565b6000600354905090565b6000600460008573ffffffffffffffffffffffffffffffffffffffff1673ffffffffffffffffffffffffffffffffffffffff168152602001908152602001600020548211156106c557600080fd5b600560008573ffffffffffffffffffffffffffffffffffffffff1673ffffffffffffffffffffffffffffffffffffffff16815260200190815260200160002060003373ffffffffffffffffffffffffffffffffffffffff1673ffffffffffffffffffffffffffffffffffffffff1681526020019081526020016000205482111561074e57600080fd5b81600460008673ffffffffffffffffffffffffffffffffffffffff1673ffffffffffffffffffffffffffffffffffffffff168152602001908152602001600020546107999190612995565b600460008673ffffffffffffffffffffffffffffffffffffffff1673ffffffffffffffffffffffffffffffffffffffff1681526020019081526020016000208190555081600560008673ffffffffffffffffffffffffffffffffffffffff1673ffffffffffffffffffffffffffffffffffffffff16815260200190815260200160002060003373ffffffffffffffffffffffffffffffffffffffff1673ffffffffffffffffffffffffffffffffffffffff168152602001908152602001600020546108649190612995565b600560008673ffffffffffffffffffffffffffffffffffffffff1673ffffffffffffffffffffffffffffffffffffffff16815260200190815260200160002060003373ffffffffffffffffffffffffffffffffffffffff1673ffffffffffffffffffffffffffffffffffffffff1681526020019081526020016000208190555081600460008573ffffffffffffffffffffffffffffffffffffffff1673ffffffffffffffffffffffffffffffffffffffff1681526020019081526020016000205461092f91906129c9565b600460008573ffffffffffffffffffffffffffffffffffffffff1673ffffffffffffffffffffffffffffffffffffffff168152602001908152602001600020819055508273ffffffffffffffffffffffffffffffffffffffff163373ffffffffffffffffffffffffffffffffffffffff167fddf252ad1be2c89b69c2b068fc378daa952ba7f163c4a11628f55a4df523b3ef846040516109cf919061232c565b60405180910390a3600190509392505050565b600b600084815260200190815260200160002060003373ffffffffffffffffffffffffffffffffffffffff1673ffffffffffffffffffffffffffffffffffffffff16815260200190815260200160002060040160009054906101000a900473ffffffffffffffffffffffffffffffffffffffff1673ffffffffffffffffffffffffffffffffffffffff163373ffffffffffffffffffffffffffffffffffffffff1614610a8d57600080fd5b60006040518060c001604052808681526020018581526020018481526020018381526020013373ffffffffffffffffffffffffffffffffffffffff168152602001600015158152509050600d81908060018154018082558091505060019003906000526020600020906005020160009091909190915060008201518160000155602082015181600101556040820151816002019081610b2c9190612ba9565b506060820151816003015560808201518160040160006101000a81548173ffffffffffffffffffffffffffffffffffffffff021916908373ffffffffffffffffffffffffffffffffffffffff16021790555060a08201518160040160146101000a81548160ff02191690831515021790555050505050505050565b6000600260009054906101000a900460ff16905090565b600080610bc9610dec565b9050600183610bd891906129c9565b91505b80821015610d1057600d8281548110610bf757610bf6612c7b565b5b9060005260206000209060050201600d600184610c149190612995565b81548110610c2557610c24612c7b565b5b9060005260206000209060050201600082015481600001556001820154816001015560028201816002019081610c5b9190612cc0565b50600382015481600301556004820160009054906101000a900473ffffffffffffffffffffffffffffffffffffffff168160040160006101000a81548173ffffffffffffffffffffffffffffffffffffffff021916908373ffffffffffffffffffffffffffffffffffffffff1602179055506004820160149054906101000a900460ff168160040160146101000a81548160ff0219169083151502179055509050508180610d0890612da8565b925050610bdb565b600d805480610d2257610d21612df0565b5b60019003818190600052602060002090600502016000808201600090556001820160009055600282016000610d57919061207f565b60038201600090556004820160006101000a81549073ffffffffffffffffffffffffffffffffffffffff02191690556004820160146101000a81549060ff021916905550509055505050565b6000600460008373ffffffffffffffffffffffffffffffffffffffff1673ffffffffffffffffffffffffffffffffffffffff168152602001908152602001600020549050919050565b6000600d80549050905090565b610e016120bf565b8273ffffffffffffffffffffffffffffffffffffffff163373ffffffffffffffffffffffffffffffffffffffff1614610e6f576040517f08c379a0000000000000000000000000000000000000000000000000000000008152600401610e6690612e91565b60405180910390fd5b600b600083815260200190815260200160002060008473ffffffffffffffffffffffffffffffffffffffff1673ffffffffffffffffffffffffffffffffffffffff1681526020019081526020016000206040518060c00160405290816000820154815260200160018201548152602001600282018054610eee90612935565b80601f0160208091040260200160405190810160405280929190818152602001828054610f1a90612935565b8015610f675780601f10610f3c57610100808354040283529160200191610f67565b820191906000526020600020905b815481529060010190602001808311610f4a57829003601f168201915b50505050508152602001600382015481526020016004820160009054906101000a900473ffffffffffffffffffffffffffffffffffffffff1673ffffffffffffffffffffffffffffffffffffffff1673ffffffffffffffffffffffffffffffffffffffff1681526020016004820160149054906101000a900460ff161515151581525050905092915050565b600760009054906101000a900473ffffffffffffffffffffffffffffffffffffffff1673ffffffffffffffffffffffffffffffffffffffff163373ffffffffffffffffffffffffffffffffffffffff161461104d57600080fd5b80600760006101000a81548173ffffffffffffffffffffffffffffffffffffffff021916908373ffffffffffffffffffffffffffffffffffffffff16021790555050565b6060600180546110a090612935565b80601f01602080910402602001604051908101604052809291908181526020018280546110cc90612935565b80156111195780601f106110ee57610100808354040283529160200191611119565b820191906000526020600020905b8154815290600101906020018083116110fc57829003601f168201915b5050505050905090565b60001515600960003373ffffffffffffffffffffffffffffffffffffffff1673ffffffffffffffffffffffffffffffffffffffff16815260200190815260200160002060020160009054906101000a900460ff161515146111b9576040517f08c379a00000000000000000000000000000000000000000000000000000000081526004016111b090612efd565b60405180910390fd5b600a54600960003373ffffffffffffffffffffffffffffffffffffffff1673ffffffffffffffffffffffffffffffffffffffff1681526020019081526020016000206000018190555080600960003373ffffffffffffffffffffffffffffffffffffffff1673ffffffffffffffffffffffffffffffffffffffff16815260200190815260200160002060010190816112519190612ba9565b506001600960003373ffffffffffffffffffffffffffffffffffffffff1673ffffffffffffffffffffffffffffffffffffffff16815260200190815260200160002060020160006101000a81548160ff021916908315150217905550600a60008154809291906112c090612da8565b919050555050565b600081600460003373ffffffffffffffffffffffffffffffffffffffff1673ffffffffffffffffffffffffffffffffffffffff168152602001908152602001600020541061149a5781600460003373ffffffffffffffffffffffffffffffffffffffff1673ffffffffffffffffffffffffffffffffffffffff1681526020019081526020016000205461135b9190612995565b600460003373ffffffffffffffffffffffffffffffffffffffff1673ffffffffffffffffffffffffffffffffffffffff1681526020019081526020016000208190555081600460008573ffffffffffffffffffffffffffffffffffffffff1673ffffffffffffffffffffffffffffffffffffffff168152602001908152602001600020546113e991906129c9565b600460008573ffffffffffffffffffffffffffffffffffffffff1673ffffffffffffffffffffffffffffffffffffffff168152602001908152602001600020819055508273ffffffffffffffffffffffffffffffffffffffff163373ffffffffffffffffffffffffffffffffffffffff167fddf252ad1be2c89b69c2b068fc378daa952ba7f163c4a11628f55a4df523b3ef84604051611489919061232c565b60405180910390a36001905061149f565b600090505b92915050565b6000600760009054906101000a900473ffffffffffffffffffffffffffffffffffffffff1673ffffffffffffffffffffffffffffffffffffffff163373ffffffffffffffffffffffffffffffffffffffff1614611537576040517f08c379a000000000000000000000000000000000000000000000000000000000815260040161152e90612f8f565b60405180910390fd5b600960008573ffffffffffffffffffffffffffffffffffffffff1673ffffffffffffffffffffffffffffffffffffffff16815260200190815260200160002060000154600b6000600c54815260200190815260200160002060008673ffffffffffffffffffffffffffffffffffffffff1673ffffffffffffffffffffffffffffffffffffffff16815260200190815260200160002060000181905550600c54600b6000600c54815260200190815260200160002060008673ffffffffffffffffffffffffffffffffffffffff1673ffffffffffffffffffffffffffffffffffffffff1681526020019081526020016000206001018190555082600b6000600c54815260200190815260200160002060008673ffffffffffffffffffffffffffffffffffffffff1673ffffffffffffffffffffffffffffffffffffffff16815260200190815260200160002060020190816116919190612ba9565b5081600b6000600c54815260200190815260200160002060008673ffffffffffffffffffffffffffffffffffffffff1673ffffffffffffffffffffffffffffffffffffffff1681526020019081526020016000206003018190555083600b6000600c54815260200190815260200160002060008673ffffffffffffffffffffffffffffffffffffffff1673ffffffffffffffffffffffffffffffffffffffff16815260200190815260200160002060040160006101000a81548173ffffffffffffffffffffffffffffffffffffffff021916908373ffffffffffffffffffffffffffffffffffffffff1602179055506000600b6000600c54815260200190815260200160002060008673ffffffffffffffffffffffffffffffffffffffff1673ffffffffffffffffffffffffffffffffffffffff16815260200190815260200160002060040160146101000a81548160ff0219169083151502179055506000600c549050600c600081548092919061180890612da8565b9190505550809150509392505050565b6000600660009054906101000a900473ffffffffffffffffffffffffffffffffffffffff1673ffffffffffffffffffffffffffffffffffffffff163373ffffffffffffffffffffffffffffffffffffffff16146118aa576040517f08c379a00000000000000000000000000000000000000000000000000000000081526004016118a190613021565b60405180910390fd5b6000600d83815481106118c0576118bf612c7b565b5b90600052602060002090600502016040518060c001604052908160008201548152602001600182015481526020016002820180546118fd90612935565b80601f016020809104026020016040519081016040528092919081815260200182805461192990612935565b80156119765780601f1061194b57610100808354040283529160200191611976565b820191906000526020600020905b81548152906001019060200180831161195957829003601f168201915b50505050508152602001600382015481526020016004820160009054906101000a900473ffffffffffffffffffffffffffffffffffffffff1673ffffffffffffffffffffffffffffffffffffffff1673ffffffffffffffffffffffffffffffffffffffff1681526020016004820160149054906101000a900460ff161515151581525050905060008160800151905060008260000151905060008360200151905060008460400151905060008560600151905060011515611a3a8686868686611cfe565b151514611a7c576040517f08c379a0000000000000000000000000000000000000000000000000000000008152600401611a73906130b3565b60405180910390fd5b611a8685826112c8565b50611a9088610bbe565b6001600b6000600c5481526020019081526020016000206000600b600087815260200190815260200160002060008973ffffffffffffffffffffffffffffffffffffffff1673ffffffffffffffffffffffffffffffffffffffff16815260200190815260200160002060040160009054906101000a900473ffffffffffffffffffffffffffffffffffffffff1673ffffffffffffffffffffffffffffffffffffffff1673ffffffffffffffffffffffffffffffffffffffff16815260200190815260200160002060040160146101000a81548160ff02191690831515021790555060019650505050505050919050565b611b8861210d565b8173ffffffffffffffffffffffffffffffffffffffff163373ffffffffffffffffffffffffffffffffffffffff1614611bf6576040517f08c379a0000000000000000000000000000000000000000000000000000000008152600401611bed90613145565b60405180910390fd5b600960008373ffffffffffffffffffffffffffffffffffffffff1673ffffffffffffffffffffffffffffffffffffffff16815260200190815260200160002060405180606001604052908160008201548152602001600182018054611c5a90612935565b80601f0160208091040260200160405190810160405280929190818152602001828054611c8690612935565b8015611cd35780601f10611ca857610100808354040283529160200191611cd3565b820191906000526020600020905b815481529060010190602001808311611cb657829003601f168201915b505050505081526020016002820160009054906101000a900460ff1615151515815250509050919050565b6000600b600085815260200190815260200160002060008773ffffffffffffffffffffffffffffffffffffffff1673ffffffffffffffffffffffffffffffffffffffff16815260200190815260200160002060040160009054906101000a900473ffffffffffffffffffffffffffffffffffffffff1673ffffffffffffffffffffffffffffffffffffffff168673ffffffffffffffffffffffffffffffffffffffff1614611de1576040517f08c379a0000000000000000000000000000000000000000000000000000000008152600401611dd8906131d7565b60405180910390fd5b600b600085815260200190815260200160002060008773ffffffffffffffffffffffffffffffffffffffff1673ffffffffffffffffffffffffffffffffffffffff168152602001908152602001600020600001548514611e76576040517f08c379a0000000000000000000000000000000000000000000000000000000008152600401611e6d90613269565b60405180910390fd5b600b600085815260200190815260200160002060008773ffffffffffffffffffffffffffffffffffffffff1673ffffffffffffffffffffffffffffffffffffffff168152602001908152602001600020600201604051602001611ed99190613317565b6040516020818303038152906040528051906020012083604051602001611f00919061335f565b6040516020818303038152906040528051906020012014611f56576040517f08c379a0000000000000000000000000000000000000000000000000000000008152600401611f4d906133e8565b60405180910390fd5b600b600085815260200190815260200160002060008773ffffffffffffffffffffffffffffffffffffffff1673ffffffffffffffffffffffffffffffffffffffff168152602001908152602001600020600301548214611feb576040517f08c379a0000000000000000000000000000000000000000000000000000000008152600401611fe290613454565b60405180910390fd5b6001905095945050505050565b6000600560008473ffffffffffffffffffffffffffffffffffffffff1673ffffffffffffffffffffffffffffffffffffffff16815260200190815260200160002060008373ffffffffffffffffffffffffffffffffffffffff1673ffffffffffffffffffffffffffffffffffffffff16815260200190815260200160002054905092915050565b50805461208b90612935565b6000825580601f1061209d57506120bc565b601f0160209004906000526020600020908101906120bb9190612130565b5b50565b6040518060c0016040528060008152602001600081526020016060815260200160008152602001600073ffffffffffffffffffffffffffffffffffffffff1681526020016000151581525090565b604051806060016040528060008152602001606081526020016000151581525090565b5b80821115612149576000816000905550600101612131565b5090565b600081519050919050565b600082825260208201905092915050565b60005b8381101561218757808201518184015260208101905061216c565b60008484015250505050565b6000601f19601f8301169050919050565b60006121af8261214d565b6121b98185612158565b93506121c9818560208601612169565b6121d281612193565b840191505092915050565b600060208201905081810360008301526121f781846121a4565b905092915050565b6000604051905090565b600080fd5b600080fd5b600073ffffffffffffffffffffffffffffffffffffffff82169050919050565b600061223e82612213565b9050919050565b61224e81612233565b811461225957600080fd5b50565b60008135905061226b81612245565b92915050565b6000819050919050565b61228481612271565b811461228f57600080fd5b50565b6000813590506122a18161227b565b92915050565b600080604083850312156122be576122bd612209565b5b60006122cc8582860161225c565b92505060206122dd85828601612292565b9150509250929050565b60008115159050919050565b6122fc816122e7565b82525050565b600060208201905061231760008301846122f3565b92915050565b61232681612271565b82525050565b6000602082019050612341600083018461231d565b92915050565b6000806000606084860312156123605761235f612209565b5b600061236e8682870161225c565b935050602061237f8682870161225c565b925050604061239086828701612292565b9150509250925092565b600080fd5b600080fd5b7f4e487b7100000000000000000000000000000000000000000000000000000000600052604160045260246000fd5b6123dc82612193565b810181811067ffffffffffffffff821117156123fb576123fa6123a4565b5b80604052505050565b600061240e6121ff565b905061241a82826123d3565b919050565b600067ffffffffffffffff82111561243a576124396123a4565b5b61244382612193565b9050602081019050919050565b82818337600083830152505050565b600061247261246d8461241f565b612404565b90508281526020810184848401111561248e5761248d61239f565b5b612499848285612450565b509392505050565b600082601f8301126124b6576124b561239a565b5b81356124c684826020860161245f565b91505092915050565b600080600080608085870312156124e9576124e8612209565b5b60006124f787828801612292565b945050602061250887828801612292565b935050604085013567ffffffffffffffff8111156125295761252861220e565b5b612535878288016124a1565b925050606061254687828801612292565b91505092959194509250565b600060ff82169050919050565b61256881612552565b82525050565b6000602082019050612583600083018461255f565b92915050565b60006020828403121561259f5761259e612209565b5b60006125ad84828501612292565b91505092915050565b6000602082840312156125cc576125cb612209565b5b60006125da8482850161225c565b91505092915050565b6125ec81612271565b82525050565b600082825260208201905092915050565b600061260e8261214d565b61261881856125f2565b9350612628818560208601612169565b61263181612193565b840191505092915050565b61264581612233565b82525050565b612654816122e7565b82525050565b600060c08301600083015161267260008601826125e3565b50602083015161268560208601826125e3565b506040830151848203604086015261269d8282612603565b91505060608301516126b260608601826125e3565b5060808301516126c5608086018261263c565b5060a08301516126d860a086018261264b565b508091505092915050565b600060208201905081810360008301526126fd818461265a565b905092915050565b60006020828403121561271b5761271a612209565b5b600082013567ffffffffffffffff8111156127395761273861220e565b5b612745848285016124a1565b91505092915050565b60008060006060848603121561276757612766612209565b5b60006127758682870161225c565b935050602084013567ffffffffffffffff8111156127965761279561220e565b5b6127a2868287016124a1565b92505060406127b386828701612292565b9150509250925092565b60006060830160008301516127d560008601826125e3565b50602083015184820360208601526127ed8282612603565b9150506040830151612802604086018261264b565b508091505092915050565b6000602082019050818103600083015261282781846127bd565b905092915050565b600080600080600060a0868803121561284b5761284a612209565b5b60006128598882890161225c565b955050602061286a88828901612292565b945050604061287b88828901612292565b935050606086013567ffffffffffffffff81111561289c5761289b61220e565b5b6128a8888289016124a1565b92505060806128b988828901612292565b9150509295509295909350565b600080604083850312156128dd576128dc612209565b5b60006128eb8582860161225c565b92505060206128fc8582860161225c565b9150509250929050565b7f4e487b7100000000000000000000000000000000000000000000000000000000600052602260045260246000fd5b6000600282049050600182168061294d57607f821691505b6020821081036129605761295f612906565b5b50919050565b7f4e487b7100000000000000000000000000000000000000000000000000000000600052601160045260246000fd5b60006129a082612271565b91506129ab83612271565b92508282039050818111156129c3576129c2612966565b5b92915050565b60006129d482612271565b91506129df83612271565b92508282019050808211156129f7576129f6612966565b5b92915050565b60008190508160005260206000209050919050565b60006020601f8301049050919050565b600082821b905092915050565b600060088302612a5f7fffffffffffffffffffffffffffffffffffffffffffffffffffffffffffffffff82612a22565b612a698683612a22565b95508019841693508086168417925050509392505050565b6000819050919050565b6000612aa6612aa1612a9c84612271565b612a81565b612271565b9050919050565b6000819050919050565b612ac083612a8b565b612ad4612acc82612aad565b848454612a2f565b825550505050565b600090565b612ae9612adc565b612af4818484612ab7565b505050565b5b81811015612b1857612b0d600082612ae1565b600181019050612afa565b5050565b601f821115612b5d57612b2e816129fd565b612b3784612a12565b81016020851015612b46578190505b612b5a612b5285612a12565b830182612af9565b50505b505050565b600082821c905092915050565b6000612b8060001984600802612b62565b1980831691505092915050565b6000612b998383612b6f565b9150826002028217905092915050565b612bb28261214d565b67ffffffffffffffff811115612bcb57612bca6123a4565b5b612bd58254612935565b612be0828285612b1c565b600060209050601f831160018114612c135760008415612c01578287015190505b612c0b8582612b8d565b865550612c73565b601f198416612c21866129fd565b60005b82811015612c4957848901518255600182019150602085019450602081019050612c24565b86831015612c665784890151612c62601f891682612b6f565b8355505b6001600288020188555050505b505050505050565b7f4e487b7100000000000000000000000000000000000000000000000000000000600052603260045260246000fd5b600081549050612cb981612935565b9050919050565b818103612cce575050612da6565b612cd782612caa565b67ffffffffffffffff811115612cf057612cef6123a4565b5b612cfa8254612935565b612d05828285612b1c565b6000601f831160018114612d345760008415612d22578287015490505b612d2c8582612b8d565b865550612d9f565b601f198416612d42876129fd565b9650612d4d866129fd565b60005b82811015612d7557848901548255600182019150600185019450602081019050612d50565b86831015612d925784890154612d8e601f891682612b6f565b8355505b6001600288020188555050505b5050505050505b565b6000612db382612271565b91507fffffffffffffffffffffffffffffffffffffffffffffffffffffffffffffffff8203612de557612de4612966565b5b600182019050919050565b7f4e487b7100000000000000000000000000000000000000000000000000000000600052603160045260246000fd5b7f4f6e6c7920746865206f7061726174696f6e206f776e65722063616e2073656560008201527f2074686973206d65737361676500000000000000000000000000000000000000602082015250565b6000612e7b602d83612158565b9150612e8682612e1f565b604082019050919050565b60006020820190508181036000830152612eaa81612e6e565b9050919050565b7f416c726561647920526567697374657265640000000000000000000000000000600082015250565b6000612ee7601283612158565b9150612ef282612eb1565b602082019050919050565b60006020820190508181036000830152612f1681612eda565b9050919050565b7f4f6e6c7920486f73706974616c2041646d696e2063616e2063616c6c2074686960008201527f732066756e6374696f6e00000000000000000000000000000000000000000000602082015250565b6000612f79602a83612158565b9150612f8482612f1d565b604082019050919050565b60006020820190508181036000830152612fa881612f6c565b9050919050565b7f4f6e6c7920496e737572656e63652041646d696e2063616e2063616c6c20746860008201527f69732066756e6374696f6e210000000000000000000000000000000000000000602082015250565b600061300b602c83612158565b915061301682612faf565b604082019050919050565b6000602082019050818103600083015261303a81612ffe565b9050919050565b7f54686520436c61696d2050726573656e74656420696e20606960206e6f74207460008201527f7275650000000000000000000000000000000000000000000000000000000000602082015250565b600061309d602383612158565b91506130a882613041565b604082019050919050565b600060208201905081810360008301526130cc81613090565b9050919050565b7f4f6e6c792074686520757365722063616e2073656520697473206f776e20646560008201527f7461696c73000000000000000000000000000000000000000000000000000000602082015250565b600061312f602583612158565b915061313a826130d3565b604082019050919050565b6000602082019050818103600083015261315e81613122565b9050919050565b7f4f6e6c792074686520636c61696d657273206164726573732063616e2063616c60008201527f6c20746869732066756e6374696f6e2100000000000000000000000000000000602082015250565b60006131c1603083612158565b91506131cc82613165565b604082019050919050565b600060208201905081810360008301526131f0816131b4565b9050919050565b7f4964206f662074686520616472657373657320646f6573206e6f74206d61746360008201527f682e000000000000000000000000000000000000000000000000000000000000602082015250565b6000613253602283612158565b915061325e826131f7565b604082019050919050565b6000602082019050818103600083015261328281613246565b9050919050565b600081905092915050565b600081546132a181612935565b6132ab8186613289565b945060018216600081146132c657600181146132db5761330e565b60ff198316865281151582028601935061330e565b6132e4856129fd565b60005b83811015613306578154818901526001820191506020810190506132e7565b838801955050505b50505092915050565b60006133238284613294565b915081905092915050565b60006133398261214d565b6133438185613289565b9350613353818560208601612169565b80840191505092915050565b600061336b828461332e565b915081905092915050565b7f4465736372697074696f6e206f66204f7065726174696f6e20646f6573206e6f60008201527f74206d617463682e000000000000000000000000000000000000000000000000602082015250565b60006133d2602883612158565b91506133dd82613376565b604082019050919050565b60006020820190508181036000830152613401816133c5565b9050919050565b7f436f7374206f6620636c61696d206973206e6f7420636f727265637400000000600082015250565b600061343e601c83612158565b915061344982613408565b602082019050919050565b6000602082019050818103600083015261346d81613431565b905091905056fea26469706673582212205c3ed89efaa8e84defa903c9383041f03622a552a17a969907678b4ec004807364736f6c63430008110033",
  "immutableReferences": {},
  "source": "// SPDX-License-Identifier: MIT\n\n\npragma solidity ^0.8.0;\n\n//Contract of ERC20\n\ncontract ERC20{\n    string token_name;\n    string token_symbol;\n    uint8 token_decimals;\n    uint256 token_totalsupply;\n    \n    mapping(address => uint256) ownerBalance;\n    mapping(address => mapping (address => uint256)) allowedToSend;\n\n\n    constructor(){\n        token_name= \"Hel Coin\";\n        token_symbol=\"Hcoin\";\n        token_decimals=0;\n        token_totalsupply=21000000;\n        ownerBalance[msg.sender]=token_totalsupply;\n    }\n    \n    event Transfer(address indexed _from, address indexed _to, uint256 _value);\n\n    event Approval(address indexed _owner, address indexed _spender, uint256 _value);\n\n\n\n    function name() public view returns (string memory){\n        return token_name;\n    }\n\n    function symbol() public view returns (string memory){\n        return token_symbol;\n    }\n\n    function decimals() public view returns (uint8){\n       return token_decimals;\n    }\n \n    function totalSupply() public view returns (uint256){\n     return token_totalsupply;\n    }\n    \n\n    function transfer(address _to, uint256 _value) public payable returns (bool success){\n        if(ownerBalance[msg.sender]>=_value){\n        ownerBalance[msg.sender]=ownerBalance[msg.sender]-_value;\n        ownerBalance[_to]=ownerBalance[_to]+_value;\n        emit Transfer(msg.sender,_to,_value); //Using Task 10\n        return true;\n        }\n        else {\n            return false;\n        }\n    }\n\n     function balanceOf(address _owner) public view returns (uint256 balance){\n         return ownerBalance[_owner];\n     }\n\n    function approve(address _spender, uint256 _value) public returns (bool success){\n        allowedToSend[msg.sender][_spender]=_value;\n        emit Approval(msg.sender,_spender,_value); //Using Task 11\n        return true;\n    }\n\n    function allowance(address _owner, address _spender) public view returns (uint256 remaining){\n    return allowedToSend[_owner][_spender];\n    }\n\n    function transferFrom(address _from, address _to, uint256 _value) public returns (bool success){\n        require(_value<=ownerBalance[_from]);\n        require(_value<=allowedToSend[_from][msg.sender]);\n        ownerBalance[_from]=ownerBalance[_from]-_value;\n        allowedToSend[_from][msg.sender]=allowedToSend[_from][msg.sender]-_value;\n        ownerBalance[_to]=ownerBalance[_to]+_value; //Using Task 10\n        emit Transfer(msg.sender,_to,_value);\n        return true;\n    }\n\n}\n\n//Contract for insurence\n\n contract Insurence is ERC20{\n    address owner;\n    address hospital_admin;\n    address payable insurence_admin;\n     constructor(address h_a){\n       owner=msg.sender;\n       hospital_admin=h_a;\n    // insurence_admin=i_a;\n     }\n\n     // 1. User Functions\n\n     //Defining the user variables\n     struct User{\n         uint user_id;\n         string user_name;\n         bool reg;\n     }\n\n     mapping(address => User) U;\n\n     uint id=1;\n\n     //Function to register a user\n\n     function regUser(string memory _name) public {\n        require(U[msg.sender].reg==false,\"Already Registered\");\n        U[msg.sender].user_id=id;\n        U[msg.sender].user_name=_name;\n        U[msg.sender].reg=true;\n        id++;\n     }\n\n     //View a User(Only by the user)\n\n     function viewUserId(address _add) public view returns (User memory){\n         require(msg.sender==_add,\"Only the user can see its own details\");\n         return U[_add];\n     }\n\n     //functiin to claim a insurence cost\n\n        function claim_insurence_cost(uint _i,uint _j,string memory _des,uint _cost) public {\n            require(msg.sender==O[_j][msg.sender].user_add);\n            Oparation memory op=Oparation(_i,_j,_des,_cost,msg.sender,false);\n            leftClaims.push(op);\n        }\n\n    //  function check_insurence_claim_a(uint _i,uint _j,string memory _des,uint _cost) public view returns(bool){\n    //      require(msg.sender==O[_j][msg.sender].user_add,\"Only the claimers adress can call this function!\");\n    //       require(_i==O[_j][msg.sender].user_id,\"Id of the adresses does not match.\");\n    //       require(keccak256(abi.encodePacked(_des))==keccak256(abi.encodePacked(O[_j][msg.sender].description)),\"Description of Operation does not match.\");\n    //       require(_cost==O[_j][msg.sender].cost_for_claim,\"Cost of claim is not correct\");\n    //       return true;\n    //  }\n\n    //See an oparation details\n\n    function oparation_details(address a,uint b) public view returns(Oparation memory){\n        require(msg.sender==a,\"Only the oparation owner can see this message\");\n        return O[b][a];\n    }\n\n\n     \n     //2. Hospital Record\n\n     //Changing the hospital admin\n     function change_hospital_admin(address _add) public{\n         require(msg.sender==hospital_admin);\n         hospital_admin=_add;\n     }\n    \n    //Struct to hold user oparation\n     struct Oparation{\n       uint user_id;\n       uint operation_id;\n       string description;\n       uint cost_for_claim;\n       address user_add;\n       bool claimed;\n     }\n\n     mapping (uint=>mapping (address=>Oparation)) O;\n     uint j=1;\n\n     //Setting an oparation\n     function recording_oparation(address _add,string memory des,uint cost) public returns(uint){\n        require(msg.sender==hospital_admin,\"Only Hospital Admin can call this function\");\n        O[j][_add].user_id= U[_add].user_id;\n        O[j][_add].operation_id=j;\n        O[j][_add].description=des;\n        O[j][_add].cost_for_claim=cost;\n        O[j][_add].user_add=_add;\n        O[j][_add].claimed=false;\n        uint k=j;\n        j++;\n        return k;\n     }    \n\n    //3. Insurence company paying \n\n    //Claim Pool to use for traking unsetteled payments\n    Oparation[] private leftClaims;\n\n    //Checking the validity of a claim\n    function check_insurence_claim(address a,uint _i,uint _j,string memory _des,uint _cost) public view returns(bool){\n        require(a==O[_j][a].user_add,\"Only the claimers adress can call this function!\");\n        require(_i==O[_j][a].user_id,\"Id of the adresses does not match.\");\n        require(keccak256(abi.encodePacked(_des))==keccak256(abi.encodePacked(O[_j][a].description)),\"Description of Operation does not match.\");\n        require(_cost==O[_j][a].cost_for_claim,\"Cost of claim is not correct\");\n        return true;\n     }\n\n     function approve_claim(uint claim_no) public returns(bool){\n       require(msg.sender==owner,\"Only Insurence Admin can call this function!\");\n       Oparation memory x=leftClaims[claim_no];\n       address a=x.user_add;\n       uint _i=x.user_id;\n       uint _j=x.operation_id;\n       string memory _des=x.description;\n       uint _cost=x.cost_for_claim;\n       require(check_insurence_claim(a,_i, _j, _des, _cost)==true,\"The Claim Presented in `i` not true\");\n    //    uint amt=_cost*1 wei;\n    //    payee.transfer(amt);\n       transfer(a, _cost);\n       remove_i_claim(claim_no);\n       O[j][O[_j][a].user_add].claimed=true;\n       return true;\n     }\n\n     function claim_pool_size() public view returns(uint){\n        return leftClaims.length;\n     }\n\n     function remove_i_claim(uint i) public {\n         uint k=0;\n         uint p=claim_pool_size();\n         for(k=i+1;k<p;k++){\n            leftClaims[k-1]=leftClaims[k];\n         }\n         leftClaims.pop();\n     }\n }",
  "sourcePath": "/Users/debrupchatterjee/Desktop/Blockchain Projects/Heathcare Insurence DAPP/contracts/contracts/main.sol",
  "compiler": {
    "name": "solc",
    "version": "0.8.17+commit.8df45f5f.Emscripten.clang"
  },
  "schemaVersion": "3.4.10",
  "updatedAt": "2022-11-12T15:36:55.562Z",
  "networkType": "ethereum",
  "devdoc": {
    "kind": "dev",
    "methods": {},
    "version": 1
  },
  "userdoc": {
    "kind": "user",
    "methods": {},
    "version": 1
  }
}